:020000040800F2
:10000000305B002005030008C117000879170008BD
:10001000BD17000899160008231D00080000000005
:100020000000000000000000000000004D02000879
:100030009D16000800000000A10200088D1A0008AB
:100040001F0300081F0300081F0300081F03000808
:100050001F0300081F0300081F0300081F030008F8
:100060001F0300081F0300081F0300081F030008E8
:100070001F0300081F0300081F0300081F030008D8
:100080001F0300081F0300081F0300081F030008C8
:100090001F0300081F0300081F0300081F030008B8
:1000A0001F0300081F0300081F0300081F030008A8
:1000B0001F0300081F0300081F0300081F03000898
:1000C0001F0300081F0300081F0300081F03000888
:1000D0001F030008051B00081F0300081F0300087A
:1000E0001F0300081F0300081F0300081F03000868
:1000F0001F0300081F0300081F0300081F03000858
:100100001F0300081F0300081F0300081F03000847
:100110001F0300081F0300081F0300081F03000837
:100120001F0300081F0300081F0300081F03000827
:100130001F0300081F0300081F0300081F03000817
:100140001F0300081F0300081F0300081F03000807
:100150001F0300081F0300081F0300081F030008F7
:100160001F0300081F0300081F0300081F030008E7
:100170001F0300081F0300081F0300081F030008D7
:100180001F0300081F03000800F002F800F04FF8FA
:100190000AA090E8000C82448344AAF10107DA45E2
:1001A00001D100F044F8AFF2090EBAE80F0013F0E5
:1001B000010F18BFFB1A43F0010318474442000027
:1001C00064420000103A24BF78C878C1FAD85207B8
:1001D00024BF30C830C144BF04680C6070470000C1
:1001E0000023002400250026103A28BF78C1FBD840
:1001F000520728BF30C148BF0B607047662904F022
:10020000B380642900F0D680732900F0798400203F
:1002100070471FB504F0A3F800F0DCFC04000020D8
:10022000002104F00FF8E0601FBD10B510BD00F014
:10023000FDFD1146FFF7EDFF01F016FE00F01BFE7D
:1002400003B4FFF7F2FF03BC01F08CFD2A4B1968E1
:100250000868B0E8F04F80F30988BFF36F8F4FF064
:10026000000080F311887047000000000648006815
:10027000006880F3088862B661B6BFF34F8FBFF3A2
:100280006F8F00DF00BF00BF08ED00E0DFF80C005B
:10029000016841F470010160704700BF88ED00E023
:1002A000EFF30980BFF36F8F134B1A681EF0100F26
:1002B00008BF20ED108A20E9F04F106008B44FF01D
:1002C000500080F31188BFF34F8FBFF36F8F03F09F
:1002D00095F84FF0000080F3118808BC1968086891
:1002E000B0E8F04F1EF0100F08BFB0EC108A80F39A
:1002F0000988BFF36F8F704744000020EFF305803B
:10030000704700000948804709480047FEE7FEE7BC
:10031000FEE7FEE7FEE7FEE7FEE7FEE7FEE7FEE7B5
:1003200004480549054A064B704700009D1A00081D
:100330008901000830550020305B00203057002034
:1003400030570020704700000FB4044910B503AACD
:10035000029800F0D9FB10BC5DF814FB14000020DB
:1003600070B50C460546012A05D02878800600D5D0
:10037000EA69002302E0012305E05B1C934202D2FC
:10038000E05C0028F9D1A869E618C01AA861286ABB
:10039000184428622846AFF3008004E0D5E9012123
:1003A00014F8010B9047B442F8D32846AFF300800D
:1003B00070BD00002DE9F041064600241068752943
:1003C000314616A510D0AFF30080002802DA404273
:1003D00013A507E031688A0701D512A502E0490795
:1003E00004D511A5012401E0AFF3008000210A2209
:1003F00006F1240709E0B0FBF2FCB0FBF2F302FBCC
:100400001C00303078541846491C0028F3D123468C
:100410002A463046BDE8F04100F0E0B80000000098
:100420002D0000002B000000200000002DE9F04707
:100430004FF0000A89460446C0F820A02046E16833
:100440008847002876D0252806D0D4E90121904796
:10045000206A401C2062F1E7E168204600258847B9
:10046000C4F81CA006460027C4F818A02A2E09D0FC
:10047000304601F070FC38B304EB8708303EC8F812
:10048000186019E059F8041B204604EB87029161BB
:10049000E1688847012F064618D1E069002820DA74
:1004A00025F020051DE0D8F8180000EB800006EBD1
:1004B00040003038C8F818002046E16888470646F2
:1004C00001F049FC0028EED1012F0AD02E2E08D1D0
:1004D0002046E16888477F1C0646022F45F020052C
:1004E000C4DBA069002803DA404245F00105A061A1
:1004F000E80701D025F01005B6B1A6F14100192892
:1005000002D8203645F400654A463146204625602B
:100510004D46FFF773FE58B1012806D0ED1D25F0BA
:10052000070000F1080989E704E005F1040985E7FF
:1005300030468AE7206ABDE8F087032A40F230801F
:1005400010F0030C00F0158011F8013BBCF1020F14
:10055000624498BF11F801CB00F8013B38BF11F895
:10056000013BA2F1040298BF00F801CB38BF00F8AC
:10057000013B11F0030300F0D982083AC0F0088073
:1005800051F8043B083A51F804CBA0E80810F5E70D
:10059000121D5CBF51F8043B40F8043BAFF30080F0
:1005A000D20724BF11F8013B11F801CB48BF11F865
:1005B000012B24BF00F8013B00F801CB48BF00F835
:1005C000012B704702F0FF0343EA032242EA024292
:1005D00000F0E0BA70477047704770472DE9F04768
:1005E0000D4699469246044600F1240801688806A3
:1005F00004D5E06921F01001216000E00120A8424B
:1006000001DD471B00E00027A1697A1902EB090010
:10061000081AA0612078C00602D42046AFF30080FB
:10062000002608E0D4E901211AF806009047206A64
:10063000401C761C20624E45F4DB2078C0060AD5AB
:100640002046AFF3008006E0D4E901213020904736
:10065000206A401C2062381EA7F10107F4DC07E085
:10066000D4E9012118F805009047206A401C206257
:10067000281EA5F10105F3DC2046AFF300802078A9
:10068000000602D50220BDE8F0870120FBE7704795
:100690002DE9FF4F0C461E464FF0FF378BB0D2E9D5
:1006A0000001DDF860800A908A46C1F30A5505B959
:1006B0003D46002108464FF00000BAF1000F00F45B
:1006C000400005DA00EB80004FF4400101EA5000E1
:1006D0004FEA9059B9F1010F00DDB9460A9850EA86
:1006E0004A000ED044F61050A5F2FF3545432F14B2
:1006F000B8F1000F1ED07542291E1EDDC9F100029F
:100700001CE0B8F1010F4FF0000001D0302103E0F0
:10071000F24305E02154401CB042FBDB304600228E
:10072000002121540B99C1F80880C1E900200FB0C5
:10073000BDE8F08FBD1B6D1CDEE74A4600DA69425A
:1007400006A800F0D1FA06AB93E8070003AB83E8F4
:10075000070050460A9900F0D7FB8DE80700A0F586
:1007600000501F3800900398002D0ADD42F21F014F
:100770004A460844002303A90390684600F040FE5F
:1007800009E0A0F500504A461F38002303A9039052
:10079000684600F04AFE8DE807000004000C03D014
:1007A0004FF0FF30410800E01046B8F1000F03D0D1
:1007B0000022009215461EE0751E05D400F00EFAC8
:1007C000303262556D1EF9D5B3460122084302D07E
:1007D00000227F1C04E02078302801D100227F1EF7
:1007E000002A099784D01DE0112D07DA00F0F6F9F0
:1007F000303262556D1C50EA0102F5D1084302D037
:100800000098C8B10EE00021681E05E0235C625C20
:1008100063542254401E491C8142F7DBAB46A81B9F
:10082000401E0990002004F80B000B98099AC0F8AC
:100830000880C0E9002B7AE711264FF0000857E73F
:100840002DE9F04F88460446D21D22F0070191B0F1
:10085000D1E90001CDE90A0101F065FA02460B98E1
:10086000C00F01D02D2007E02068810701D52B2083
:1008700002E0202101EAC000032A099001D0072AE2
:1008800005DB03464146204600F0EEF90BE12078F7
:10089000800601D5E06900E00620B8F1650F8146C9
:1008A00006D0B8F1660F18D0B8F1670F70D131E0FB
:1008B0000020B9F1110F009001DB112301E009F1D3
:1008C00001030AAA01A90CA8FFF7E2FEDDE90C70FA
:1008D000002609F10105834647E001204B460090C0
:1008E0004FF000470AAA01A90CA8FFF7D1FEDDE9E5
:1008F0000DB00C995D46002610B909F101000D18E4
:10090000B9EB050003D4C0F1FF3609F10105A5EBF1
:1009100009002BE0B9F1010F01DA4FF001090020C5
:10092000B9F1110F0090484601DD112300E00346A4
:100930000AAA01A90CA8FFF7ABFEDDE90C704D4631
:1009400000268346207800070AD4AB4500DA5D46CE
:1009500001A8012D04DD411911F8011C302907D02F
:100960004F4502DA17F1040F04DA012082460FE046
:100970006D1EEEE7002F02DCED1B3E4403E0781C09
:10098000A84200DD7D1CB81B00F1010A4FF00047B2
:100990002078000703D4AA4501DB4FF0FF3A00217D
:1009A000B7F1004F0DF143088DF8431024D0022019
:1009B0002B23002F01DA7F422D230A21021EA0F1F2
:1009C000010000DC5FB197FBF1FC97FBF1F201FB4A
:1009D0001C7C17460CF1300C08F801CDEEE7A8F1AD
:1009E000010003702188090501D5452100E065213A
:1009F000A0F1010800F8011C09980FA9A1EB080754
:100A0000FF1D00B10120411901EBEA70A1693844D2
:100A1000081A401EA0612078C00602D42046AFF319
:100A20000080099828B1D4E901219047206A401C30
:100A300020622078C00622D52046AFF300801EE059
:100A4000002E04DBB34502DD01A8805D00E030200C
:100A5000D4E901219047206A401C2062761CAAF14B
:100A600001005FEA000A0AD100F0B4F8C06801682A
:100A7000405CD4E901219047206A401C2062281E76
:100A8000A5F10105DCDC07E0D4E9012118F8010B30
:100A90009047206A401C2062381EA7F10107F3DC52
:100AA0002046AFF30080032011B041E601694A1CE3
:100AB00002610878704700B58FB0CDE9013100219F
:100AC000059105497944CDE9031011466846FFF7C1
:100AD000ADFC0FB000BD0000E5FFFFFF10B543699E
:100AE00013B1AFF3008001E0FFF73AFC012010BD25
:100AF000127800F124010A7000224A700122EDE709
:100B000011684FF0FF32E9E7074B70B50D467B44A3
:100B1000FFF7D1FF0446284600F058F910B14FF016
:100B2000FF3070BD204670BDF312000010B5203AB2
:100B3000C0F00B80B1E81850203AA0E81850B1E896
:100B40001850A0E81850BFF4F5AF5FEA027C24BF4C
:100B5000B1E81850A0E8185044BF18C918C0BDE843
:100B600010405FEA827C24BF51F8043B40F8043B0C
:100B700008BF7047D20728BF31F8023B48BF11F8C1
:100B8000012B28BF20F8023B48BF00F8012B70471B
:100B90004FF000020429C0F0128010F0030C00F0A6
:100BA0001B81CCF1040CBCF1020F18BF00F8012B23
:100BB000A8BF20F8022BA1EB0C0100F00DB95FEAF1
:100BC000C17C24BF00F8012B00F8012B48BF00F8BE
:100BD000012B704700487047EC54002030B5B0F14D
:100BE0000A024FEA900E71F100034EEA817EB0EBEB
:100BF0000E0061EB91014FEA101E4EEA017E10EBF0
:100C00000E0041EB11114FEA102E4EEA016E10EB6F
:100C10000E0041EB11214FEA104E4EEA014E10EB4F
:100C20000E0041EB1141401841F100014FEAD000A4
:100C300040EA41704FEAD10110EB80054FEA810490
:100C400044EA907444EB01046D1944EB0404521B14
:100C5000A3414FF0000348BF0A3200D530BD401C0D
:100C600041F1000130BD00002DE9F0411F4604466E
:100C700003260168072A01F4006004DB08B116A509
:100C800005E016A503E008B115A500E015A521F0C3
:100C900010002060A069C01EA0610FB1401EA061BD
:100CA0002046AFF300804FB1D4E901213846904788
:100CB000206A401C2062C01C206206E0206AFAE71D
:100CC000D4E9012115F8010B9047761EF8D2204691
:100CD000AFF30080BDE8F0814E414E006E616E00C2
:100CE000494E4600696E66002DE9F047814616467A
:100CF0008AB0354878440DC88DE80D0032487844F4
:100D0000801C03AC0DC884E80D0041F69B300844FC
:100D1000372190FBF1F290FBF1F5A5F1800501FB85
:100D200012041B3C02D56442012000E00020DFF8E1
:100D300098A080460027FA44AAF1BE0A0EE0E00718
:100D40000AD03246684607EB470101230AEB8101CE
:100D500000F06BFB8DE8070064107F1C002CEED1C7
:100D6000194F7F44AE3F19E0E80715D007EB041098
:100D70000DF1180A90E80E008AE80E00C068F042F3
:100D800001D1981908903246012306A903A800F062
:100D90004CFB03AB83E807006D10641C002DE3D10E
:100DA0004FF0010332466946B8F1000F03A802D0A4
:100DB00000F026FB01E000F038FBC9E90001C9F8AA
:100DC00008200AB0BDE8F087F0360000007B00F094
:100DD000800070474FF0000200B5134694469646D7
:100DE000203922BFA0E80C50A0E80C50B1F120013E
:100DF000BFF4F7AF090728BFA0E80C5048BF0CC0EC
:100E00005DF804EB890028BF40F8042B08BF704749
:100E100048BF20F8022B11F0804F18BF00F8012BBB
:100E20007047000000487047CC5400207546FFF71B
:100E3000F9FFAE4605006946534620F00700854697
:100E400018B020B5FFF76CFABDE820404FF000065F
:100E50004FF000074FF000084FF0000B21F00701A2
:100E6000AC46ACE8C009ACE8C009ACE8C009ACE8E5
:100E7000C0098D46704710B50446AFF30080204688
:100E8000BDE81040FFF7DCB94FF0013C50F8042BEF
:100E900051F8043B9A4221D1A2EB0C03934313EA8D
:100EA000CC1317D150F8042B51F8043B9A4215D1BA
:100EB000A2EB0C03934313EACC130BD150F8042B91
:100EC00051F8043B9A4209D1A2EB0C03934313EA75
:100ED000CC13DBD04FF00000704700BFD01A01BA2E
:100EE000B1FA81F101F0180122FA01F0CB40C1F111
:100EF0002001DBB2C0B2C01A2CFA01F3D11A91431F
:100F000011EAC311E6D170475FEA400C08BF91F0C7
:100F1000000F4FEA8C234FEAC12243EA51514FEAB6
:100F20001C5018BF00F5F0404FEA300018BF41F0E8
:100F300000415FEA6C5C00F02980BCF1FF3F08BF14
:100F400040F080407047130C06BF12044FF0100CA5
:100F50004FF0000C130E04BF12020CF1080C130F1B
:100F600004BF12010CF1040C930F04BF92000CF1AA
:100F7000020CD30F04BF52000CF1010C11464FF0CC
:100F80000002A0F11F00A0EB0C00704711F0004F11
:100F900008BF704731F000413FF4D5AF0B0C06BFDE
:100FA00009044FF0100C4FF0000C0B0E04BF0902A7
:100FB0000CF1080C0B0F04BF09010CF1040C8B0F92
:100FC00004BF89000CF1020CCB0F04BF49000CF1E7
:100FD000010CCCF12003A0EB0C0022FA03F302FA7F
:100FE0000CF241EA030100F10100704720F07F4C50
:100FF00080EA030023F07F47ACEB070303F57C5343
:1010000000F0004003F1FF032DE980494FEA154B42
:1010100009B44FEA144325EA0B4E24EA03480FF2C1
:10102000042606EB132749083E785FEA320203FBE9
:101030000667C7F5000707FB06F64FEA54374FEA85
:10104000D64606F1020607FB066CCCF1005C4FEABF
:101050001C472CEA074C07FB06F40CFB06F504EBD7
:1010600015464FEA961634BF00204FF000404FEA75
:10107000D13706FB07FC4FEA1C4C0CFB0BF7D21BCD
:1010800003FB0CF761EB07010CFB0EF7B0EB07401D
:1010900072EB17420CFB08F734BFA2EB0742B2EB2E
:1010A000074261EB17414FEA0C444FEA910706FBF8
:1010B00007FC4FEA1C4C0CFB0BF7B0EBC74072EB84
:1010C000573203FB0CF734BFA2EBC742B2EBC74267
:1010D00061EB57310CFB0EF7B0EBC70072EB5772A8
:1010E0000CFB08F734BFA2EBC702B2EBC70261EBFF
:1010F0005771039F4FEA816141EA921104EBCC04DE
:101100004FEAD1374FEA826206FB07FC42EA9012AF
:101110004FEA80604FEA1C4C0CFB0BF7D21B03FB21
:101120000CF761EB07010CFB0EF7B0EB074072EB1D
:1011300017420CFB08F734BFA2EB0742B2EB0742A1
:1011400061EB17414FEA8C554FEA910704EB9C2461
:1011500006FB07FC4FEA1C4C0CFB0BF7B0EBC7403F
:1011600072EB573203FB0CF734BFA2EBC742B2EB72
:10117000C74261EB57310CFB0EF7B0EBC70072EBC7
:1011800057720CFB08F734BFA2EBC702B2EBC702E1
:1011900061EB577115EB4C254FEA816141EA9211E1
:1011A0004FEA82624FEAD13742EA901206FB07FC0F
:1011B00044F100044FEA80604FEA1C4C0CFB0BF733
:1011C000D21B03FB0CF761EB07010CFB0EF7B0EB36
:1011D000074072EB17420CFB08F734BFA2EB074243
:1011E000B2EB074261EB174115EB1C154FEA813159
:1011F00041EA92414FEA823242EA90424FEA80301D
:101200004FEA0C7644F1000448EA03434EEA0B48E7
:101210004FF0000EB2EB080C71EB030724BF6246DF
:1012200039464EEB0E0E4FF0000B0018524149416B
:101230004BEB0B0BB2EB080C71EB03077BF1000BD4
:1012400024BF624639464EEB0E0E4FF0000B0018DD
:10125000524149414BEB0B0BB2EB080C71EB03070E
:101260007BF1000B24BF624639464EEB0E0E51EA6D
:10127000020718BF46F0010616EB0E7655F1000284
:1012800054F1000103D5BDE88901BDE80088BDE83F
:101290008901BDE80048B619524141EB0101A3F1B3
:1012A0000103704780807F7E7D7C7B7A79787776BA
:1012B00076757473727171706F6E6E6D6C6C6B6A33
:1012C0006A696868676666656464636362616160D1
:1012D000605F5F5E5E5D5D5C5C5B5B5A5A5959584E
:1012E00058575756565555555454535352525251B8
:1012F000515050504F4F4F4E4E4D4D4D4C4C4C4B0E
:101300004B4B4A4A4A494949484848474747474654
:101310004646454545444444444343434342424290
:1013200042414141002B9C4630D477002BD01CB564
:101330004FEA370703B44FF010004FF01001BAF135
:10134000000F06D0BCF1000FDCBF40F0080040F0F9
:1013500008014FF000000FBCBDE810400BF1010B7D
:10136000BBF1010F08BF5FEA170722BF12F10102AC
:1013700011F101014FF0004143F1000300F0004082
:1013800043EA00007047F9D35708D0E746EA06461B
:1013900013F1400F4FEA16461FDD13F1200FDFBF98
:1013A00016430A46002120335B42BED0C3F120071A
:1013B00046EA064602FA07F74FEA164646EA0706E5
:1013C000C3F1200722FA03F201FA07F721FA03F129
:1013D0004FF0000342EA0702A7E746EA020646EAA0
:1013E00006464FEA164646EA0106BCBF46EA0646EE
:1013F000360C4FF000034FF000024FF0000194E76D
:101400002DE9804C9A46934670B491E8380007C89D
:1014100031EA400C48BF34EA430C03D5FFF7E6FD40
:10142000FFF780FFF0BCBDE8008C2DE9804C9A46A8
:10143000934670B491E8380007C810F0804F08BF99
:1014400013F0804F03D100F005F8FFF76BFFF0BCFD
:10145000BDE8008C20F07F4780EA030023F07F4C3A
:1014600007EB0C03A3F57C5300F00040A3F1FE034F
:1014700092F0000F00F0B38095F0000F00F077803D
:101480002DE901494FEA11404FEA144621EA00488C
:1014900000FB06FC24EA064708FB06F607FB08F8F3
:1014A00000FB07F718EB06484CEB164C4FEA124BC3
:1014B00018EB07484FEA15464CEB174022EA0B4E53
:1014C0000BFB06FC25EA06470EFB06F607FB0EFEA5
:1014D0000BFB07F71EEB064E4CEB164C4FF00006CD
:1014E0001EEB074E4CEB174B18EB0B0840F10000BE
:1014F00018EB0E0B58EB000840F100008F1A4FF06C
:1015000000013CBFC943661B14BFB5EB040C0021AE
:101510003CBFC943F61B4FEA17444EEA8E0E27EA3A
:1015200004454FEA1C4704FB07622CEA074C05FB05
:1015300007F70CFB05F604FB0CFC16EB074642EB29
:10154000174216EB0C4642EB1C421BEB060658EB0F
:101550000202414146EA9E0601D5BDE80189B6195D
:10156000524141EB0101A3F10103BDE801894FEABA
:1015700014454FEA114724EA054621EA074C05FBCA
:1015800007F406FB07F70CFB06F105FB0CFC11EB5F
:10159000074144EB17444FEA124711EB0C4144EB6F
:1015A0001C4422EA074C05FB07F206FB07F70CFB7D
:1015B00006F605FB0CFC16EB074642EB174216EB52
:1015C0000C4642EB1C456A1854F1000148BF7047B5
:1015D000B619524141EB0101A3F10103704795F0A7
:1015E000000F37D04FEA11424FEA144721EA024672
:1015F00024EA074C02FB07F106FB07F70CFB06F495
:1016000002FB0CFC14EB074441EB17414FEA154772
:1016100014EB0C4441EB1C4125EA074C02FB07F597
:1016200006FB07F70CFB06F602FB0CFC16EB074665
:1016300045EB174516EB0C4645EB1C42121951F1D0
:10164000000148BF7047B619524141EB0101A3F1B7
:10165000010370474FEA14454FEA114724EA054653
:1016600021EA074C05FB07F106FB07F70CFB06F226
:101670004FF0000605FB0CFC12EB074241EB174153
:1016800012EB0C4251EB1C4148BF7047921841EBE2
:101690000101A3F10103704700BFFEE77047F0B5F9
:1016A0000A4600210023002400BF3DE0012505FA81
:1016B00001F3156805EA03049C4234D105684F0024
:1016C0000326BE40B543056015794E00B540066857
:1016D000354305601579012D02D01579022D16D1FB
:1016E00085684F000326BE40B543856055794E009E
:1016F000B540866835438560456801268E40B54310
:101700004560456896798E40B6B235434560C568F8
:101710004F000326BE40B543C560D5794E00B540A5
:10172000C6683543C560491C1029BFD3F0BDF0B56C
:10173000002300244D07ED0E02FA05F3CE1000F150
:10174000200555F826504E07F70E0F26BE40B5432C
:10175000CF1000F1200646F82750CE1000F12005EA
:1017600055F8265045EA0304CE1000F1200545F84F
:101770002640F0BD0183704700BFFEE71CB5012184
:10178000202000F065F84FF4C060009001208DF833
:10179000040000208DF8060003208DF805000120CC
:1017A0008DF8070069460448FFF779FF4FF4C061E0
:1017B0000148FFF7DFFF1CBD0014024000BFFEE739
:1017C0007047000070B5002100230F22C4781CB3BD
:1017D000174C246804F4E064C4F5E064C4F3072102
:1017E000C1F10404E3B20A4144789C40E1B2847838
:1017F000144021430C07210E0E4C057861550478E6
:1018000004F01F050124AC4005786D11AD0005F111
:10181000E025C5F8004109E0047804F01F05012423
:10182000AC40054D0678761145F8264070BD0000A5
:101830000CED00E000E400E080E100E0024901433B
:10184000024A1160704700000000FA050CED00E04C
:1018500029B1064A12680243044B1A6004E0034AA5
:1018600012688243014B1A60704700003038024012
:1018700029B1064A12680243044B1A6004E0034A85
:1018800012688243014B1A607047000044380240DE
:10189000F0B5002100220024022500260223324F49
:1018A0003F6807F00C0121B1042905D0082937D180
:1018B00005E02E4F076036E02D4F076033E02A4FDA
:1018C0003F1F3F68C7F38056274F3F1F3F6807F011
:1018D0003F036EB1264FB7FBF3F7DFF88CC0ACF1D6
:1018E000040CDCF800C0CCF3881C07FB0CF40CE003
:1018F0001E4FB7FBF3F7DFF870C0ACF1040CDCF857
:1019000000C0CCF3881C07FB0CF4174F3F1F3F6847
:10191000C7F301477F1C7D00B4FBF5F7076002E0C9
:10192000124F076000BF00BF0F4F3F6807F0F00184
:101930000909104F7A5C0768D74047600A4F3F6833
:1019400007F4E051890A0B4F7A5C4768D7408760FB
:10195000054F3F6807F46041490B064F7A5C4768C2
:10196000D740C760F0BD0000083802400024F400F2
:1019700040787D01000000200CB50020019000900F
:101980003448006840F480303249086000BF314874
:10199000006800F4003000900198401C019000980D
:1019A00018B90198B0F5A04FF1D12A48006800F4A9
:1019B000003010B10120009001E00020009000985C
:1019C000012846D123484030006840F0805021492A
:1019D000403108602048006840F440401E490860DB
:1019E0001C48083000681B49083108600846006838
:1019F00040F4004008600846006840F4A0500860C9
:101A00001648091F0860081F006840F08070091F11
:101A1000086000BF0F48006800F000700028F9D08F
:101A200040F205700E4908600A480830006820F04E
:101A300003000849083108600846006840F00200C9
:101A4000086000BF03480830006800F00C00082858
:101A5000F8D10CBD00380240007000401954400716
:101A6000003C0240042808D14FF0E021096941F010
:101A700004014FF0E022116107E04FF0E021096915
:101A800021F004014FF0E0221161704710B502F01F
:101A900031F9012801D001F0B3FD10BD10B5154892
:101AA000006840F47000134908601348006840F073
:101AB00001001149086000200F49083108600E48F4
:101AC00000680E4908400C4908600D48091D08606F
:101AD000081F006820F48020091F086000200649C4
:101AE0000C310860FFF748FF4FF000600149803972
:101AF000086010BD88ED00E000380240FFFFF6FEF0
:101B00001030002410B540F225511D4800F04AF86D
:101B100010B31B4800F000F9C4B21A48008800F462
:101B20000040C8B91748008800F4804060B10A2C12
:101B300003D000201349088020E01248008840F4B8
:101B400000401049088019E00D2C06D10D4800888E
:101B500040F480400B49088010E00A480088C0F338
:101B60000D0009490C5407480088401C05490880AD
:101B700008460088C72801DD0020088010BD00004D
:101B80000010014018000020B800002021B1828917
:101B900042F40052828104E082894DF6FF731A40BC
:101BA0008281704770B50246002400230025002082
:101BB00040F66A16B14200D100BFC1F3421501F0F0
:101BC0001F03012606FA03F3012D02D19689334043
:101BD00006E0022D02D1168A334001E0968A334096
:101BE0000C12012606FA04F41688344013B10CB125
:101BF000012000E0002070BDF0B50346002400265F
:101C00000025002040F66A17B94200D100BF1846EF
:101C1000C1F3421401F01F06012707FA06F5012C53
:101C200001D10C3004E0022C01D1103000E014305E
:101C30001AB107682F43076002E00768AF430760E7
:101C4000F0BD00002DE9FF4705460E460024A146E1
:101C500000BFA046B08900B100BF2C8A24F44054D4
:101C6000F08804432C82AC8941F20C608443B08834
:101C700031890843718908430443AC81AC8A24F458
:101C80004074B0890443AC826846FFF701FE2048E7
:101C9000854202D01F48854202D1DDF80C9001E058
:101CA000DDF80890A88900F4004040B109EBC900B4
:101CB00000EB091031684900B0FBF1F707E009EBD0
:101CC000C90000EB091031688900B0FBF1F764200E
:101CD000B7FBF0F004012009642101FB1078A8890A
:101CE00000F4004040B1322000EBC800B0FBF1F03E
:101CF00000F00700044308E0322000EB08106421E4
:101D0000B0FBF1F000F00F0004432C81BDE8FF8729
:101D1000001001400014014001468888C0F308000B
:101D2000704700BFFEE703B401984100009850EAF5
:101D3000C12018BF04204A0D18BF40F0010040F236
:101D4000FF72B2EB515F08BF40F00200012808BFEC
:101D5000052002B0704730380A2801D201207047B0
:101D60000020704700BF704770B504460420FFF79D
:101D700079FE0C48047025464FF47A7045430120E3
:101D8000094908804FF0E020006940F002004FF060
:101D9000E021086108464561006940F001000861E2
:101DA00070BD000010000020120000202DED028BFD
:101DB00016E00C4890ED000ADFED0B0A30EE200A29
:101DC00080ED000A006802F059FA41EC180B53EC60
:101DD000182B06A0FEF7B8FA4FF47A7001F014F948
:101DE000E7E700002C0000200AD7233C666C6F61F7
:101DF000745F6E756DB5C4D6B5CEAA3A20252E3463
:101E0000660D0A0000BF054A128802F04002002A4F
:101E1000F9D0C2B2014B9A80704700000010014017
:101E200009E005480068C0430449C1F8A4024FF422
:101E3000FA7001F0E9F8F4E7A482424200804242DD
:101E40000DE0002006490860C82001F0DDF80120FF
:101E50000449C1F8A8024FF4487001F0D5F8F0E742
:101E6000A8824242008042421CB54FF44070FFF706
:101E7000E5FCA820FFF778FF4FF4E13000F0B0FE5A
:101E8000FFF77CFC0648012100238022CDE90010E9
:101E900004A1074801F0FEFE01F052FA00201CBD2B
:101EA0001C00002073746172745F7461736B0000B6
:101EB0004D2B00082DE9F04105460E461C480768E9
:101EC0001C480068001D00F0E1FE50B91948006888
:101ED00090F82C1001208840174909688143164862
:101EE0000160681C38B936B112480168091D1348F1
:101EF00000F00AFF1AE07C190E4800684460BC42FA
:101F000007D20C480168091D0D48006800F0E2FE88
:101F10000CE008480168091D0A48006800F0DAFE74
:101F200009480068844201D207480460BDE8F08196
:101F300058000020440000205C0000209004002095
:101F40004C000020480000207400002010B504461A
:101F500000F0E6FE24480068401C2349086023483E
:101F6000006840B9214804600846006801280DD186
:101F700000F0EEF90AE01E48006838B91B48006816
:101F8000C06AE16A884201D81848046019480068AC
:101F9000401C1849086008460068606494F82C10DA
:101FA0000120884014490968084313490860E16A20
:101FB00001EB8101114A02EB8100211D00F0A4FE1A
:101FC00000F0F2FE0A48006868B108480068C06A7C
:101FD000E16A884207D24FF0805009490860BFF398
:101FE0004F8FBFF36F8F10BD5400002044000020BE
:101FF00060000020700000205C000020C001002074
:1020000004ED00E010B500F08BFE10480068D0B978
:102010000F4800F04FFE0F4800F04CFE0C480E49F0
:1020200008600C480D49086000221021052001F0CD
:1020300001FB064908600846006820B108A1034872
:10204000006800F0A5FF00F0AFFE10BD8800002082
:10205000A4040020B8040020800000208400002098
:10206000546D72510000000070B523E001F0BEF91C
:102070001348006808B9012000E00020054601F07F
:10208000C5FFBDB900F04CFE0D48C068C468201DF6
:1020900000F0FCFD0B480068401E0A4908600A4831
:1020A0000068401E0849086000F07EFE204600F0EF
:1020B00060F800BF044800680028D7D170BD000058
:1020C0007C040020540000205000002070B504461D
:1020D0000D46206C70B1216CE0680844E0606168D6
:1020E000E068884201D32068E0602846226CE168FD
:1020F000FEF723FA70BD2DE9F04104460F46154660
:102100004FF00008A66B206C40B9206860BB606887
:1021100001F0B6FE80460020606025E07DB93946BA
:10212000226CA068FEF709FA216CA0680844A06040
:10213000D4E90110884217D32068A06014E0394622
:10214000226CE068FEF7F9F9216CE068401AE06063
:102150002168E068884203D2216C6068401AE06020
:10216000022D01D106B1761E701CA0634046BDE869
:10217000F08110B50446206B00F04EFE204600F0C2
:102180004BFE10BD0146084A126812680AB90122C6
:1021900000E000220A600A6822B9034A1268D26885
:1021A000106800E0002070478000002030B54FF438
:1021B000A043174800F007042CB1C01D20F0070011
:1021C000134C041B1B1B0246124C22600024114DB1
:1021D0006C60D018083820F007000F4C20600024F5
:1021E0000D4D2D686C600C4D2D682C601146441A05
:1021F0004C60094C24680C60084D4C682C60084DFC
:102200004C682C604FF00044064D2C6030BD00003F
:10221000CC040020A0000020A8000020B000002076
:10222000AC000020B400002000BFFFF71DFF0648EF
:1022300000680128F9D94FF0805004490860BFF3C5
:102240004F8FBFF36F8FF0E7C001002004ED00E077
:102250002DE9F04106460D4617469846069C0DB9F5
:10226000246000E02760E66325640121204601F038
:10227000FFFA84F850800020A064BDE8F0810000DF
:102280002DE9F05F82460F4690469B460A9E0C9CC5
:102290004FEA8801A522206BFEF794F9A8F101000E
:1022A000216B01EB800929F0070909F0070008B943
:1022B000012000E0002028B940F22B321BA120A011
:1022C000FEF742F8002507E0795D04F1340041553E
:1022D000785D00B902E06D1C102DF5D300BF002120
:1022E00043200155202E00D31F26E662E66400201D
:1022F0002065201D00F0EBFC04F1180000F0E7FC65
:102300002461C6F12000A06164620020606584F849
:1023100058005A465146484600F002FC20600B988F
:1023200008B10B980460BDE8F09F00002E2E5C46BB
:1023300072656552544F535C7461736B732E630006
:102340004572726F723A25732C25640D0A000000E5
:1023500010B5002407E004EB84010F4A02EB810072
:1023600000F0A8FC641C202CF5D30C4800F0A2FC63
:102370000B4800F09FFC0B4800F09CFC0A4800F062
:1023800099FC0A4800F096FC044809490860044892
:102390000849086010BD0000C00100204004002072
:1023A00054040020680400207C04002090040020D5
:1023B000480000204C00002010B50146164800E0FF
:1023C000006803688B42FBD30246436813448B4288
:1023D00004D143684C682344436001460A464B6875
:1023E00013440468A34211D10C4C03682468A3422F
:1023F00008D04B680468646823444B6003681B681A
:102400000B6005E0054B1B680B6001E003680B6087
:10241000884200D0016010BDA0000020A80000206C
:102420002DE9F04104460D4616461F464FF00008C0
:1024300065602461B5420CD8F01BA169884202D3C3
:102440004FF0010811E0211D0948006800F042FC2E
:102450000BE0BE4204D2BD4202D34FF0010804E0BB
:10246000211D0448006800F035FC4046BDE8F081BD
:10247000840000208000002070B5054600F050FC6C
:10248000A86B08B9012400E0002400F08DFC204670
:1024900070BD70B5054600F043FCA86BE96B88423F
:1024A00001D1012400E0002400F07EFC204670BD34
:1024B0002DE9F3410D460098846C00272CB940F6B5
:1024C000CE121AA11EA0FDF73FFFA06BE16B884260
:1024D00001D2012000E0002028B940F6CF1213A15C
:1024E00017A0FDF731FFA06BE16B88421BD294F976
:1024F00045602A4669462046FFF7FDFD0746701CE9
:1025000060B9606A08B9012000E0002050B904F108
:10251000240001F021FD28B1012703E0701C40B226
:1025200084F8450000BF3846BDE8FC812E2E5C468D
:1025300072656552544F535C71756575652E630005
:102540004572726F723A25732C25640D0A000000E3
:10255000F8B505460F4613480068C068C468201DDA
:1025600000F094FBE069012818D1A06941192B46BD
:102570003A462046FFF754FF80B1002003462A4622
:1025800001460090204601F00BFE06462EB94FF49E
:10259000027205A10AA0FDF7D7FE00BF2046616ABE
:1025A0008847F8BD800000202E2E5C46726565527B
:1025B000544F535C74696D6572732E6300000000A4
:1025C0004572726F723A25732C25640D0A00000063
:1025D000F0B587B070E0039800280CDA04AE2EB98D
:1025E00040F2E7223AA140A0FDF7AEFED6E9002076
:1025F000B168904700BF039800285DDB059C6069C7
:1026000008B9012000E0002010B9201D00F03EFBB9
:1026100002A800F0C7F8054603980A284AD2DFE866
:1026200000F00905072C2E4506082D2F00BF00BF1E
:1026300000BF00BF0498A269811803462A462046BD
:10264000FFF7EEFEC0B12046616A8847E0690128C5
:1026500012D1002000900498A16942180023194665
:10266000204601F09DFD07462FB940F2213218A106
:102670001DA0FDF769FE00BF1DE000BF1BE000BF0D
:102680000498A061A06908B1012000E0002028B9E9
:102690004FF44E720EA114A0FDF756FEA069411929
:1026A0002B462A462046FFF7BBFE04E0204600F0FA
:1026B000B3FB00E000BF00BF00231A4603A90E4889
:1026C000006800F0F1FF002885D107B0F0BD0000E0
:1026D0002E2E5C4672656552544F535C74696D656D
:1026E00072732E63000000004572726F723A257398
:1026F0002C25640D0A00000088000020F8B505466E
:102700000C4600F073FE684600F04CF80646009850
:1027100020BB44B9B54206D801F078FC31462846C2
:10272000FFF716FF1CE03CB10E480068006808B9CE
:10273000012000E000200446A91B22460A48006848
:1027400000F03CFC01F062FC50B94FF080500749AA
:102750000860BFF34F8FBFF36F8F01E001F056FCAD
:10276000F8BD0000840000208800002004ED00E097
:102770000A490968096809B9012100E0002121B16D
:102780004FF0FF31064A116006E004490968C96844
:10279000C868034A41681160704700004800002083
:1027A0007400002070B5044601F0B4FA05460748ED
:1027B0000068854204D200F00BF80120206001E09F
:1027C0000020206001480560284670BD9000002070
:1027D0002DE9F8432DE021480068C06805681F48CE
:1027E0000068C068C468201D00F050FA2046616A85
:1027F0008847E06901281CD1A0694619AE4207D973
:1028000066602461211D1548006800F063FA10E03D
:10281000002003462A4601460090204601F0C0FCF5
:1028200007462FB940F292320DA113A0FDF78CFD9F
:1028300000BF0A480068006808B9012000E00020D5
:102840000028C8D00548D0F800800F480068034928
:1028500008600D48C0F80080BDE8F88380000020C3
:102860002E2E5C4672656552544F535C74696D65DB
:1028700072732E63000000004572726F723A257306
:102880002C25640D0A000000840000200C4800681C
:10289000401C08B9012000E0002028B940F20F12C6
:1028A00008A113A0FDF750FD00BF502080F3118850
:1028B000BFF34F8FBFF36F8F00BF00BFFEE7000075
:1028C000940000202E2E5C4672656552544F535C76
:1028D000706F727461626C655C525644535C415215
:1028E0004D5F434D34465C706F72742E6300000080
:1028F0004572726F723A25732C25640D0A00000030
:1029000008B500BF6846FFF73DFC04462046009925
:10291000FFF7F4FEFFF75CFEF4E770B5044600F045
:10292000FFF994F945501AE0A06C38B10021204617
:10293000FFF7BEFD88B100F027FC0EE0606A08B921
:10294000012000E0002038B904F1240001F004FB6C
:1029500018B100F019FC00E003E0681E45B2002D3C
:10296000E2DC00BFFF2084F8450000F01DFA00F013
:10297000D7F994F9445010E0206908B9012000E02B
:10298000002048B904F1100001F0E6FA08B100F0A7
:10299000FBFB681E45B200E001E0002DECDC00BF4F
:1029A000FF2084F8440000F0FFF970BD2DE9F041EC
:1029B00004464FF0000800F019FD3E48006808B9D1
:1029C000FFF7F4FB3C480068204000285FD1A4B129
:1029D000083404F0070080B104F00700C0F10800DB
:1029E000044404F0070008B9012000E0002020B9E9
:1029F000BF2232A13BA0FDF7A7FC002C47D03D48E9
:102A00000068844243D83C4E3046056801E02E46BB
:102A10002D686868A04202D228680028F7D12548AE
:102A20000068854233D0306800F1080828683060BB
:102A30006868001B102813D92F1907F0070008B980
:102A4000012000E0002020B9EC221CA125A0FDF708
:102A50007BFC6868001B78606C603846FFF7ACFC54
:102A6000244968680968081A22490860084600680D
:102A700022490968884203D21E4800681F4908603D
:102A80000D4968680968084368600020286001F003
:102A9000BDFA08F0070008B9012000E0002028B9BD
:102AA0004FF4967205A10FA0FDF74EFC4046BDE81D
:102AB000F0810000A8000020B40000202E2E5C460B
:102AC00072656552544F535C706F727461626C65CD
:102AD0005C4D656D4D616E675C686561705F342E3D
:102AE000630000004572726F723A25732C25640DE5
:102AF0000A000000AC000020A0000020B000002070
:102B00000648006830B10549096801F15000096DB7
:102B1000491C016001480068704700004400002023
:102B2000001F4FF080730360001F21F0010303605A
:102B3000001F054B036014380260001F6FF0020392
:102B400003602038704700008D2800081CB504463B
:102B500000F0E6F81248022100233222CDE90010ED
:102B600010A1134801F096F81248032100233222E5
:102B7000CDE9001010A1134801F08CF8124804218F
:102B800000238022CDE9001010A1134801F082F843
:102B90001248006800F072FA00F006F91CBD00004F
:102BA000200000206C6564305F7461736B0000006E
:102BB000211E0008240000206C6564315F7461737D
:102BC0006B000000411E000828000020666C6F6149
:102BD000745F7461736B0000AD1D00081C00002061
:102BE00010B588B0044601210846FEF731FE0121E8
:102BF0001020FEF73DFE072209212248FEF797FD2F
:102C000007220A211F48FEF792FD4FF4C06006908C
:102C100002208DF81C008DF81D0000208DF81E008C
:102C200001208DF81F0006A91648FEF738FD029412
:102C30000020ADF80C00ADF80E00ADF81000ADF8B6
:102C400014000C20ADF8120002A90F48FEF7FAFF9D
:102C500001210D48FEF79AFF012240F225510A4852
:102C6000FEF7CAFF25208DF8040003208DF805002B
:102C70008DF8060001208DF8070001A8FEF7A2FDDF
:102C800008B010BD000002400010014001460A6972
:102C9000D1E901309860D1E9010358605068884259
:102CA00001D188685060002008611068401E1060E3
:102CB0001068704700F1080141604FF0FF318160FA
:102CC00000F10801C160016100210160704700212D
:102CD0000161704710B502460B685C1C0CB91069A5
:102CE00007E002F1080000E04068446824689C4264
:102CF000FAD944684C604C68A160886041600A6100
:102D00001468641C146010BD42684A6093688B604C
:102D1000936859609160086103685B1C03607047A9
:102D200010B500BF502080F31188BFF34F8FBFF361
:102D30006F8F00BF0B480068401C0A4908600846B6
:102D4000006801280DD108480068C0B208B9012008
:102D500000E0002028B940F2B91204A10EA0FDF74E
:102D6000F3FA10BD9400002004ED00E02E2E5C4626
:102D700072656552544F535C706F727461626C651A
:102D80005C525644535C41524D5F434D34465C7037
:102D90006F72742E630000004572726F723A257371
:102DA0002C25640D0A00000010B50B48006828B9F6
:102DB0004FF4E07209A114A0FDF7C6FA06480068B6
:102DC000401E054908600846006820B9002080F3CD
:102DD000118800BF00BF10BD940000202E2E5C465D
:102DE00072656552544F535C706F727461626C65AA
:102DF0005C525644535C41524D5F434D34465C70C7
:102E00006F72742E630000004572726F723A257300
:102E10002C25640D0A00000070B506463546002ECC
:102E200035D0083D2C461A4960680968084008B149
:102E3000012000E0002028B94FF4A07215A11FA0C6
:102E4000FDF782FA206808B9012000E0002028B9C7
:102E500040F241120FA119A0FDF776FA0C49606803
:102E60000968084098B1206888B90949606809680C
:102E70008843606000F0BAFA144960680968084441
:102E8000124908602046FFF797FA01F0BFF870BDBD
:102E9000B40000202E2E5C4672656552544F535C80
:102EA000706F727461626C655C4D656D4D616E67CB
:102EB0005C686561705F342E630000004572726F5C
:102EC000723A25732C25640D0A000000AC00002026
:102ED000064800684FF47A71B0FBF1F0401E4FF0E5
:102EE000E0214861072008617047000030000020A1
:102EF00070B5FDF703FA0546102D11D305F1E0205A
:102F000090F8F04310480078844201DB012000E093
:102F1000002028B94FF440720CA117A0FDF714FA55
:102F20001948006800F4E06018490968884201D82F
:102F3000012000E0002028B94FF4447203A10EA044
:102F4000FDF702FA70BD0000980000202E2E5C46AE
:102F500072656552544F535C706F727461626C6538
:102F60005C525644535C41524D5F434D34465C7055
:102F70006F72742E630000004572726F723A25738F
:102F80002C25640D0A0000000CED00E09C000020E0
:102F9000024600200BE0084B53F8303033B9064BA3
:102FA00043F8301003EBC0035A6002E0401C0828CD
:102FB000F1D300BF70470000800100202DE9F041EF
:102FC00005460E4617462C46FFF7AAFE94F9440024
:102FD000401C10B9002084F8440094F94500401CBE
:102FE00010B9002084F84500FFF7DEFEA06B28B979
:102FF0003A46314604F1240000F0F6F82046FFF787
:103000008CFCBDE8F081000070B504460025ACB131
:103010000F48006808B9012000E0002028B940F2FC
:10302000CF420CA110A0FDF78FF900F0DFF90021CD
:103030002046FEF73FFF00F0E9FF05463DB94FF09F
:1030400080500D490860BFF34F8FBFF36F8F70BD85
:103050007C0000202E2E5C4672656552544F535CF6
:103060007461736B732E63004572726F723A2573CD
:103070002C25640D0A00000004ED00E070B5054643
:10308000FFF74EFE15B92D48006800E028460446BB
:10309000201DFFF7FBFD78B9E06A00EB80002849AE
:1030A00051F8200040B994F82C100120884025499F
:1030B0000968814323480160A06A18B104F118002F
:1030C000FFF7E4FD20480068401C1F4908601B48CA
:1030D0000068844209D1211D1C48FFF715FE1C48D9
:1030E0000068401C1A49086009E01A480068401E40
:1030F000184908602046FFF73CF8FFF739FBFFF757
:1031000053FE15480068C0B10C480068844214D1D1
:103110001248006808B9012000E0002028B940F2F8
:1031200065420FA113A0FDF70FF94FF0805015492C
:103130000860BFF34F8FBFF36F8F70BD4400002056
:10314000C00100205C000020700000207C040020F2
:103150005000002054000020600000207C0000206F
:103160002E2E5C4672656552544F535C7461736BCE
:10317000732E63004572726F723A25732C25640DAD
:103180000A00000004ED00E00120014908607047DA
:103190006800002070B504460D462CB940F6063292
:1031A00007A10CA0FDF7D0F80E48016818312046A1
:1031B000FFF790FD01212846FEF77CFE70BD000060
:1031C0002E2E5C4672656552544F535C7461736B6E
:1031D000732E63004572726F723A25732C25640D4D
:1031E0000A0000004400002070B505460E46144653
:1031F0002DB940F6313209A10DA0FDF7A5F8104810
:10320000016818312846FFF77FFD0CB14FF0FF36FB
:1032100021463046FEF74EFE70BD00002E2E5C4665
:1032200072656552544F535C7461736B732E630007
:103230004572726F723A25732C25640D0A000000E6
:103240004400002070B505462C46002D4BD0264981
:10325000E06A0968C96A884245D2A06900F0004066
:1032600028B921480068C06AC0F12000A061E16A65
:1032700001EB81011D4A02EB81016069884201D1A5
:10328000012000E0002050B3201DFFF7FFFC78B9BB
:10329000E06A00EB8000154951F8200040B994F82D
:1032A0002C100120884012490968814310480160B0
:1032B0000D480068C06AE06294F82C100120884034
:1032C0000B49096808430A490860E16A01EB81017A
:1032D000064A02EB8100211DFFF716FD03E00248BC
:1032E0000068C06AE06270BD44000020C001002098
:1032F0005C00002010B504462CB940F6C13205A18F
:1033000009A0FDF721F80C48006820600B48006810
:10331000606010BD2E2E5C4672656552544F535C42
:103320007461736B732E63004572726F723A25730A
:103330002C25640D0A0000006C00002058000020BD
:103340001CB51A4800210B468222CDE9001018A1B5
:10335000194800F09FFC0446012C02D100F0E6FE63
:103360000446012C15D100BF502080F31188BFF313
:103370004F8FBFF36F8F00BF4FF0FF300F490860D2
:1033800001200F49086000200E49086000F08AF80B
:103390000BE0601C08B1012000E0002028B940F2D9
:1033A000847209A10DA0FCF7CFFF1CBD780000209E
:1033B00049444C4500000000292200087400002008
:1033C00060000020580000202E2E5C467265655279
:1033D000544F535C7461736B732E63004572726F4C
:1033E000723A25732C25640D0A000000024800681B
:1033F000401C0149086070477C00002010B51B4844
:10340000006818B101201A4908602DE00020184911
:10341000086018480068B0FA80F0C0F11F0404EB9F
:103420008400154951F8200008B1012000E0002077
:1034300028B940F6F62211A115A0FCF785FF04EB90
:1034400084010D4A02EB810041684968416000F146
:10345000080142688A4202D1416849684160416876
:10346000C9680F4A116000BF10BD00007C00002039
:10347000680000205C000020C00100202E2E5C4669
:1034800072656552544F535C7461736B732E6300A5
:103490004572726F723A25732C25640D0A00000084
:1034A000440000201CB5404800684049884201D0D3
:1034B000012000E0002028B940F259123CA147A0A9
:1034C000FCF742FF384800683849491E884201D05D
:1034D000012000E0002028B94FF4AD7234A13FA0D4
:1034E000FCF732FF414C204600780190FF20214636
:1034F00008700846007800909DF8000000F0F00089
:103500009DF80010884201D1012000E0002028B978
:1035100040F2731226A131A0FCF716FF9DF80000BF
:1035200000F050003249087007203249086009E075
:1035300030480068401E2F4908609DF80000400692
:10354000000E00909DF8000000F080008028EFD071
:10355000284800680002274908600846008800F4EF
:10356000E06008602149019808700F482030006829
:1035700040F470000C49203108600846006840F0B3
:1035800070400860FFF7A4FC00201B490860FCF7AE
:103590007DFE1A48006840F0404018490860FCF77A
:1035A00065FE00201CBD000000ED00E071C20F416F
:1035B0002E2E5C4672656552544F535C706F727468
:1035C00061626C655C525644535C41524D5F434DA1
:1035D00034465C706F72742E630000004572726F27
:1035E000723A25732C25640D0A00000000E400E007
:1035F000980000209C0000209400002034EF00E0A0
:1036000010B500BF502080F31188BFF34F8FBFF378
:103610006F8F00BF00F084FB18B14FF08050044959
:10362000086000BF002080F3118800BF10BD0000BB
:1036300004ED00E02DE9F84305460E4690460DB135
:10364000012000E0002028B94FF4C4720DA112A09F
:10365000FCF77AFE0EB9002701E005FB06F707F13B
:103660005400FFF7A3F9044644B104F1540943465A
:103670004A46314628460094FEF7EAFD2046BDE85A
:10368000F88300002E2E5C4672656552544F535CE1
:1036900071756575652E63004572726F723A257398
:1036A0002C25640D0A0000002DE9FF4782B0054675
:1036B0000E461F464FF0000A2C462CB940F2DC4261
:1036C00061A166A0FCF740FE0EB9206C08B901208C
:1036D00000E0002028B940F2DD425BA15FA0FCF7CA
:1036E00033FE00F007FB08B9049808B9012000E098
:1036F000002028B94FF49C6253A158A0FCF724FE87
:1037000000BFFFF70DFBD4F83890B9F1000F3DD0A2
:10371000D4F80C8031462046FEF7D8FCDFB9A9F179
:103720000100A063206810B9FFF7EAF96060206922
:1037300008B9012000E0002010BB04F1100000F0E7
:103740000BFCE8B14FF0805048490860BFF34F8F41
:10375000BFF36F8F14E0C4F80C80606A08B90120D1
:1037600000E0002060B904F1240000F0F5FB38B15E
:103770004FF080503D490860BFF34F8FBFF36F8F0C
:10378000FFF712FB012006B0BDE8F087049818B9D6
:10379000FFF70AFB0020F6E7BAF1000F04D16846F4
:1037A000FFF7A8FD4FF0010AFFF7FEFAFFF71EFE34
:1037B000FFF7B6FA94F94400401C10B9002084F8D1
:1037C000440094F94500401C10B9002084F84500DD
:1037D000FFF7EAFA04A9684600F00CFA40BB20465D
:1037E000FEF74AFEF0B1206830B9FFF799FA606839
:1037F000FFF728FDFFF7D8FA04F124000499FFF73A
:10380000C9FC2046FFF789F800F000FC00287FF48F
:1038100078AF4FF0805015490860BFF34F8FBFF36A
:103820006F8F6EE72046FFF778F800F0EFFB68E750
:103830002046FFF772F800F0E9FB2046FEF71CFE79
:103840000028EED000209EE72E2E5C467265655261
:10385000544F535C71756575652E63004572726FC8
:10386000723A25732C25640D0A00000004ED00E077
:1038700070B505460E462C462CB940F21B121EA10F
:1038800022A0FCF761FDFFF74BFAD4E90F12206884
:1038900001FB020060600020A0632068A060E06B74
:1038A000401E226C216800FB0210E060FF2084F8BB
:1038B000440084F845009EB9206908B9012000E061
:1038C0000020A8B904F1100000F046FB80B14FF0D1
:1038D000805012490860BFF34F8FBFF36F8F07E02E
:1038E00004F11000FFF7E6F904F12400FFF7E2F914
:1038F000FFF75AFA012070BD2E2E5C4672656552A4
:10390000544F535C71756575652E63004572726F17
:10391000723A25732C25640D0A00000004ED00E0C6
:103920002DE9FF4383B0064688461D464FF0000947
:1039300034462CB940F2D92260A165A0FCF704FD01
:10394000B8F1000F01D1206C08B9012000E000207F
:1039500028B940F2DA2259A15DA0FCF7F5FC022D4E
:1039600002D1E06B012801D1012000E0002028B93C
:1039700040F2DB2251A156A0FCF7E6FC00F0BAF9B8
:1039800008B9059808B9012000E0002028B940F2E4
:10399000DE224AA14EA0FCF7D7FC00BFFFF7C0F91A
:1039A000A06BE16B884201D3022D38D12A464146F3
:1039B0002046FEF7A0FB0746A06C68B129462046CA
:1039C000FEF776FD28B34FF0805045490860BFF3FD
:1039D0004F8FBFF36F8F1CE0606A08B9012000E0D1
:1039E000002068B904F1240000F0B6FA88B14FF065
:1039F00080503B490860BFF34F8FBFF36F8F08E0E3
:103A00003FB14FF0805036490860BFF34F8FBFF38E
:103A10006F8FFFF7C9F9012007B0BDE8F083059863
:103A200018B9FFF7C1F90020F6E7B9F1000F04D18A
:103A300001A8FFF75FFC4FF00109FFF7B5F9FFF7A9
:103A4000D5FCFFF76DF994F94400401C10B9002033
:103A500084F8440094F94500401C10B9002084F813
:103A60004500FFF7A1F905A901A800F0C3F8F0B9D6
:103A70002046FEF70EFDA0B104F110000599FFF7F6
:103A800089FB2046FEF749FF00F0C0FA002885D1E7
:103A90004FF0805012490860BFF34F8FBFF36F8F14
:103AA0007CE72046FEF739FF00F0B0FA76E72046C3
:103AB000FEF733FF00F0AAFA0020ADE72E2E5C4699
:103AC00072656552544F535C71756575652E630060
:103AD0004572726F723A25732C25640D0A0000003E
:103AE00004ED00E02DE9F05F80468A4615461E464B
:103AF00044462CB940F29F3235A13AA0FCF724FC91
:103B0000BAF1000F01D1206C08B9012000E00020BB
:103B100028B94FF468722EA132A0FCF715FC022ED2
:103B200002D1E06B012801D1012000E0002028B97A
:103B300040F2A13226A12BA0FCF706FCFFF7D8F932
:103B400000BF5021EFF3118081F31188BFF34F8F35
:103B5000BFF36F8F00BF0746A06BE16B884201D3B4
:103B6000022E2BD194F945B0324651462046FEF73D
:103B7000C2FA0BF10100C8B9A06C40B13146204631
:103B8000FEF796FCB8B1B5B10120286013E0606A79
:103B900008B9012000E0002068B904F1240000F019
:103BA000DBF940B13DB10120286004E00BF10100D8
:103BB00040B284F845004FF0010901E04FF00009E0
:103BC00000BF87F3118800BF4846BDE8F09F0000A2
:103BD0002E2E5C4672656552544F535C7175657547
:103BE000652E63004572726F723A25732C25640D41
:103BF0000A0000002DE9F04104460D462CB940F6BC
:103C0000CB3219A11DA0FCF79FFB2DB940F6CC3299
:103C100015A11AA0FCF798FBFFF782F81B4807686C
:103C20002868401C08B9002619E01949206809686D
:103C3000884204D06068B84201D801260FE060686D
:103C4000381A2968884209D228686168791A401AA6
:103C500028602046FFF74EFB002600E00126FFF714
:103C6000A3F83046BDE8F0812E2E5C4672656552A1
:103C7000544F535C7461736B732E63004572726FA3
:103C8000723A25732C25640D0A00000058000020AC
:103C90006C0000202DE9FF4F85B08046894617460D
:103CA000DDE912ABB800FEF781FE064656B15C2096
:103CB000FEF77CFE04460CB1266304E03046FFF7B5
:103CC000ABF800E000247CB10020CDE900ABCDE9E9
:103CD00002403A4649464046089BFEF7D1FA204644
:103CE000FEF734F9012501E04FF0FF35284609B011
:103CF000BDE8F08F0549096809B9012005E00449CC
:103D0000096809B9022000E0002070476000002027
:103D10007C0000200149086870470000580000201E
:103D20002DE9F0414FF0000841480068002872D1A9
:103D300040480068451C3F480560EDB93E480068B2
:103D4000006808B9012000E0002028B940F6D91227
:103D50003AA13FA0FCF7F8FA3748076840480068E6
:103D6000354908603E4807603E480068401C3D49B0
:103D70000860FEF7FDFC00BF3B48006885423CD36D
:103D800000BF2D480068006808B9012000E000204D
:103D900020B14FF0FF30344908602DE0264800681C
:103DA000C068C4686668B54202D22F48066023E046
:103DB000201DFEF76BFFA06A18B104F11800FEF792
:103DC00065FF94F82C1001208840284909680843B1
:103DD00026490860E16A01EB8101254A02EB810076
:103DE000211DFEF791FF2349E06A0968C96A8842EC
:103DF000C7D34FF00108C4E700BF1E480068C06A7F
:103E000000EB80001A4951F82000012801D94FF039
:103E1000010805E0FFE718480068401C16490860E3
:103E20001648006808B14FF001084046BDE8F0812F
:103E30007C00002058000020480000202E2E5C4608
:103E400072656552544F535C7461736B732E6300DB
:103E50004572726F723A25732C25640D0A000000BA
:103E60004C0000206C000020740000205C0000204A
:103E7000C0010020440000206400002068000020F1
:103E800070B505462C460026002D4BD0264800680C
:103E9000844201D1012000E0002028B940F6C76229
:103EA00022A127A0FCF750FA206D28B940F6C9627C
:103EB0001EA123A0FCF748FA206D401E2065E16C8E
:103EC000E06A88422ED0206D60BB201DFEF7DEFE2A
:103ED00078B9E06A00EB80001D4951F8200040B934
:103EE00094F82C10012088401A4909688143194828
:103EF0000160E06CE062E06AC0F12000A06194F82B
:103F00002C100120884013490968084311490860B2
:103F1000E16A01EB81010E4A02EB8100211DFEF7EF
:103F2000F3FE0126304670BD440000202E2E5C4674
:103F300072656552544F535C7461736B732E6300EA
:103F40004572726F723A25732C25640D0A000000C9
:103F5000C00100205C00002070B50646F068C4680F
:103F60002CB940F661321AA11EA0FCF7EDF904F15C
:103F70001800FEF78BFE1F480068A8B9201DFEF749
:103F800085FE94F82C10012088401B4909680843DD
:103F900019490860E16A01EB8101184A02EB8100CE
:103FA000211DFEF7B1FE04E004F118011448FEF7EC
:103FB000ABFE1449E06A0968C96A884204D9012540
:103FC00001201149086000E00025284670BD00006E
:103FD0002E2E5C4672656552544F535C7461736B50
:103FE000732E63004572726F723A25732C25640D2F
:103FF0000A0000007C0000205C000020C0010020BE
:1040000068040020440000206800002070B50024EF
:1040100000263448006828B94FF4FD6232A137A069
:10402000FCF792F9FEF77CFE2E480068401E2D49F1
:1040300008600846006800284FD13448006800280E
:104040004BD024E03248C068C46804F11800FEF781
:104050001DFE201DFEF71AFE94F82C10012088404A
:104060002C49096808432B490860E16A01EB81018A
:10407000294A02EB8100211DFEF746FE2749E06A2E
:104080000968C96A884202D301202549086020488E
:10409000006808B9012000E000200028D2D00CB14F
:1040A000FEF766FB1F48056865B100BFFFF738FEE5
:1040B00010B101201A4908606D1E002DF6D10020B4
:1040C000184908601648006838B1012630071649BB
:1040D0000860BFF34F8FBFF36F8FFEF765FE30466A
:1040E00070BD00007C0000202E2E5C46726565527B
:1040F000544F535C7461736B732E63004572726F1F
:10410000723A25732C25640D0A000000540000202B
:10411000680400205C000020C00100204400002052
:10412000680000206400002004ED00E01CB50024BD
:10413000FDF768FF0B48006858B10B481F210023AA
:104140004FF48272CDE9001008A10A48FFF7A2FDE2
:1041500004462CB940F2331207A10DA0FCF7F4F885
:1041600020461CBD880000208C000020546D722069
:1041700053766300012900082E2E5C467265655255
:10418000544F535C74696D6572732E6300000000B8
:104190004572726F723A25732C25640D0A00000077
:1041A0002DE9FF4704460D4616461F46DDF83080D0
:1041B0004FF000092CB94FF4D37217A11CA0FCF7E3
:1041C000C3F81F48006810B3009501960294062DAD
:1041D00015DAFFF78FFD022808D100234246694611
:1041E00017480068FFF79CFB814610E000231A4641
:1041F000694613480068FFF793FB814607E00023F8
:104200003A4669460E480068FFF76CFC814648460E
:1042100004B0BDE8F08700002E2E5C467265655242
:10422000544F535C74696D6572732E630000000017
:104230004572726F723A25732C25640D0A000000D6
:104240008800002010B500290AD00878002807D07F
:1042500005487844FCF718FE002801D0002010BD66
:104260000248784410BD0000CE010000C6010000E5
:104270000808A0F500114FEA3101704743004FEAEA
:10428000D30C4FEA3C0C43401FBF40070CF1605178
:1042900013F0FE4F70471CF0006F03D100200CF0AC
:1042A000004170470CF0004343EA507010B540EAFB
:1042B000CC0000F00EF800BF000000924FEA0001B1
:1042C000FFF7D6BF4FF000414FF00000A1F50021ED
:1042D00070470EF1020E2EF0030E5EF8044B2442DE
:1042E00004D44FEA4102B2F17F4F11D84FEA4003A4
:1042F000B3F17F4F0CD80ED14FEAD07CB2F17F4F93
:104300000CEB4C0C0CF1020C08BF4CEBD17C04E024
:104310004FF0080C01E04FEAD17C0CEB4C0324FA7F
:1043200003F404F00704B4F1040C06D20EEB840C81
:10433000BDE810404CF0010C6047DFE80CF00708C6
:1043400002024FF00040A0F5800010BD0846420078
:1043500018BFD2F1807288BF00F0004010BD4FF04E
:104360004070E1EE100A7047FCF76ABA02400000A4
:10437000000000A00000000005400000000000C890
:10438000000000000C4000000000409C0000000005
:10439000194000000020BCBE0000000034400000B6
:1043A000BFC91B8E00000004B5400000504BCFD0A9
:1043B0006607E2CF010000006C4100003E8251AA76
:1043C000DFEEA73401000000D9420000DCB5A0E216
:1043D0003A301F97FFFFFFFFB4450000FD25A0C83E
:1043E000E9A3C14FFFFFFFFFFF3F00000000008077
:1043F00000000000FF3F00000000008000000000FF
:104400003C44000800000020B8000000C40100087F
:10441000F4440008B8000020785A0000E0010008C9
:104420001C00000043000000F8FFFFFF0C0000002C
:104430000E0000000F0000002E0000000000000031
:10444000010203040102030406070809000000003A
:10445000000000000000000000000000000000005C
:10446000000000000000000000000000007A030AC5
:104470000000000000000000010203040607080914
:10448000000000000000000000000000000000002C
:10449000000000000000000000000000000000001C
:1044A000000000000000000000000000000000000C
:1044B00000000000000000000000000000000000FC
:1044C00000000000000000000000000000000000EC
:1044D000AAAAAAAA00000000000000000000000034
:1044E00000000000000000000000000000000000CC
:0444F00000000000C8
:040000050800018965
:00000001FF
